:100000000C94BF000C94E7000C94E7000C94E700FC
:100010000C94E7000C94E7000C94E7000C94E700C4
:100020000C94E7000C94E7000C94E7000C94E700B4
:100030000C94E7000C94E7000C94E7000C94E700A4
:100040000C9438100C94E7000C9424130C94561361
:100050000C94E7000C94E7000C94E7000C94E70084
:100060000C94E7000C94E70008000000BE922449BD
:10007000123EABAAAA2ABECDCCCC4C3E00000080DA
:10008000BEABAAAAAA3E00000000BF000000803F4D
:100090000000000000084178D3BB4387D1133D190D
:1000A0000E3CC3BD4282AD2B3E68EC8276BED98F3A
:1000B000E1A93E4C80EFFFBE01C4FF7F3F0000007E
:1000C0000000536F756E64202D2048616E646C656E
:1000D00072004E65772053657474696E67730043D0
:1000E000757272656E7420537461747573202D205F
:1000F00048616E646C6572004261636B20546F20CE
:100100004D61696E204D656E75202D2048616E64CD
:100110006C657200454550524F4D210000000008AB
:1001200000020100000304070000000000000000BE
:10013000010204081020408001020408102001027E
:10014000040810200404040404040404020202024B
:100150000202030303030303000000002300260040
:10016000290000000000250028002B0000000000EE
:10017000240027002A0080035506020D861311244F
:100180001FBECFEFD8E0DEBFCDBF12E0A0E0B1E0F0
:10019000E8E9F4E302C005900D92AA34B107D9F75B
:1001A00023E0AAE4B2E001C01D92A838B207E1F74B
:1001B00011E0CEE7D1E004C02297FE010E94EF17C4
:1001C000C637D107C9F70E94CA130C944A1A0C9477
:1001D00000006115710581F0DB010D900020E9F749
:1001E000AD0141505109461B570BDC01ED91FC91CB
:1001F0000280F381E02D099480E090E008958091E1
:100200005C0290915D02089590935B0280935A0284
:10021000FC018081918190935D0280935C027093D8
:10022000590260935802089568EF70E086EE92E0FC
:100230000E944514E0915A02F0915B028081918105
:1002400090935D0280935C0264E670E080E090E051
:100250000C94B1106FED70E086EE92E00E944514B0
:10026000E0915A02F0915B028281938190935D024A
:1002700080935C0264E670E080E090E00C94B11042
:1002800062ED70E086EE92E00E944514E0915A0221
:10029000F0915B028481958190935D0280935C0272
:1002A00064E670E080E090E00C94B11062EC70E0E5
:1002B00086EE92E00E944514E0915A02F0915B02B2
:1002C0008681978190935D0280935C0264E670E082
:1002D00080E090E00C94B110CF93DF93C2E3D0E0C4
:1002E00061E081E10E94801161E070E080E090E0D7
:1002F0000E94B11060E081E10E94801162E070E034
:1003000080E090E00E94B110219751F7E0915A02ED
:10031000F0915B028081918190935D0280935C02F9
:1003200064E670E080E090E0DF91CF910C94B11032
:100330008091C402811110C040E060E080915802B9
:10034000909159020E94B90D60E271E080915802CB
:10035000909159020E94E90041E060E080915802CA
:10036000909159020E94B90D66EB71E0809158029C
:10037000909159020E94E900609194027091950257
:10038000809196029091970245EC52E00E94EE0B0C
:1003900065EC72E080915802909159020E94E90048
:1003A0006CE271E080915802909159020E94E9003C
:1003B00060919002709191028091920290919302CB
:1003C00045EC52E00E94EE0B65EC72E08091580221
:1003D000909159020E94E90063E371E08091580214
:1003E000909159020C94E90060E08AE492E00E9446
:1003F000740F0E940C166093C0027093C102809328
:10040000C2029093C30241E060E080915802909153
:1004100059020E94B90D66EB71E0809158029091EB
:1004200059020E94E9006091C0027091C10280915E
:10043000C2029091C30245EC52E00E94EE0B65ECC3
:1004400072E080915802909159020E94E90065E3A0
:1004500071E080915802909159020E94E9000E9437
:1004600082106093B8027093B9028093BA0290939D
:10047000BB0208958AE492E00E94EE0F0E940C16DF
:100480006093BC027093BD028093BE029093BF0242
:1004900041E060E080915802909159020E94B90DAC
:1004A0006EE271E080915802909159020E94E90039
:1004B0006091BC027091BD028091BE029091BF021A
:1004C00045EC52E00E94EE0B65EC72E08091580220
:1004D000909159020E94E90063E371E08091580213
:1004E000909159020E94E9000E9482106093B80224
:1004F0007093B9028093BA029093BB020895109250
:100500009C0210929D0210929E0210929F021092E5
:1005100098021092990210929A0210929B0282E025
:1005200090E00E947A07E0915A02F0915B0280818C
:10053000918190935D0280935C0260E086E00E946E
:10054000801161E085E00E9480111092C40208953C
:1005500080915802909159020E94B20D40E060E0F3
:1005600080915802909159020E94B90D67E371E0A1
:1005700080915802909159020E94E90041E060E0A8
:1005800080915802909159020E94B90D60919C028D
:1005900070919D0280919E0290919F0245EC52E0E5
:1005A0000E94EE0B65EC72E0809158029091590226
:1005B0000E94E90065E371E0809158029091590230
:1005C0000C94E90080915802909159020E94B20D5A
:1005D00040E060E080915802909159020E94B90D6C
:1005E0006EE371E080915802909159020E94E900F7
:1005F00041E060E080915802909159020E94B90D4B
:10060000609198027091990280919A0290919B0258
:1006100045EC52E00E94EE0B65EC72E080915802CE
:10062000909159020E94E90063E371E080915802C1
:10063000909159020C94E90081E090E00E947A07C1
:100640000E94EB0680915802909159020E94B20DCF
:1006500040E060E080915802909159020E94B90DEB
:1006600064E471E080915802909159020E94E9007F
:1006700060ED77E080E090E00E94B110E0915A02D6
:10068000F0915B028081918190935D0280935C0286
:1006900060E085E00E94801161E086E00E948011A8
:1006A00081E08093C402089581E00E94330C81E0D0
:1006B0000E94DD07E0915A02F0915B0280819181F6
:1006C00090935D0280935C0264E670E080E090E0CD
:1006D0000C94B11080E00E94330C80E00E94DD0792
:1006E000E0915A02F0915B028081918190935D02CA
:1006F00080935C0264E670E080E090E00C94B110BE
:1007000026E04BE06EE08AE492E00C94C10E20E01B
:1007100042E060E186E792E00E94D30D61E08BE069
:100720000E94471160E084E00E94471160E082E08F
:100730000E94471160E083E00E94471161E082E17E
:100740000E94471161E081E10E94471161E083E16D
:100750000E94471161E080E10E94471161E085E05D
:100760000E94471161E086E00E94471161E08BE042
:100770000E94801161E083E10E94801160E080E1CD
:100780000E94801160E085E00E94801160E086E0B8
:100790000E94801160E082E10E94801160E081E1AE
:1007A0000E94801161E083E10C9480110E9482100C
:1007B000609360027093610280936202909363027F
:1007C00086E792E00E94B20D64E670E080E090E07F
:1007D0000E94B11040E061E086E792E00E94B90D0E
:1007E00064E670E080E090E00E94B11061E571E0A5
:1007F00086E792E00E94E90064E670E080E090E025
:100800000E94B11041E060E086E792E00E94B90DDD
:1008100064E670E080E090E00E94B11060E671E074
:1008200086E792E00E94E9000E94D507029749F40A
:1008300068E873E180E090E00E94B1100E94360CFD
:1008400006C068EB7BE080E090E00E94B1100E945F
:10085000FF000C94A2086F927F928F929F92AF92AA
:10086000BF92CF92DF92EF92FF920F931F93CF939D
:10087000DF93CDB7DEB7C658D1090FB6F894DEBF07
:100880000FBECDBF61E771E0CE01C7960E94D714BD
:1008900060E871E0CE01CD960E94D7146DE871E05A
:1008A00087E390E08C0F9D1F0C960E94D71463E99C
:1008B00071E087E390E08C0F9D1F42960E94D71451
:1008C00088E0E6E0F1E0DE01AD58BF4F01900D9207
:1008D0008A95E1F76CE971E0CE0101966C010E9406
:1008E000D71488E190E00E94D9135C01FE01ED5815
:1008F000FF4F7F018E01095C1F4F24E030E046E787
:1009000052E0B6010E946008B0927502A092740293
:10091000C6010E94691466EA71E0C6010E94D714FC
:100920006EEA71E0CE0107960E94D7146CEB71E07D
:10093000CE010D960E94D71469EC71E0CE0143966A
:100940000E94D7146EEC71E0CE0149960E94D71434
:100950008AE0EEE0F1E0DE01AF59BF4F01900D9269
:100960008A95E1F763ED71E0CE014F960E94D714AE
:1009700088E190E00E94D9135C01CE018F599F4F0E
:100980007C01860125E030E046E752E0BE01615E71
:100990007F4FC5010E946008B0927302A09272025C
:1009A000CE014F960E94691467E371E0CE014F9625
:1009B0000E94D7146EE371E0CE0185960E94D71491
:1009C00067EE71E0CE018B960E94D7146EEC71E059
:1009D000CE01C1960E94D71488E0E8E1F1E0DE0183
:1009E000A559BF4F01900D928A95E1F76DEE71E028
:1009F000CE01815B9F4F0E94D71488E190E00E9456
:100A0000D9135C01FE01E559FF4F7F01025E1F4FC4
:100A100024E030E046E752E0BE01615B7F4F0E9478
:100A20006008B0927102A0927002CE01815B9F4F6C
:100A30000E9469146FEF71E0CE01815B9F4F0E94AD
:100A4000D7148FE4A82EB12CAC0EBD1EF6E0AF0E6D
:100A5000B11C69E072E0C5010E94D7149FE4892EA1
:100A6000912C8C0E9D1E8CE0880E911C63E471E02D
:100A7000C4010E94D7147E0191E8E90EF11C86E0C2
:100A8000F70111928A95E9F784E593E0F7019183E4
:100A900080838AE693E09383828364E172E0CE01EF
:100AA00085589F4F0E94D71488E190E00E94D91387
:100AB0003C01005D1F4F22E030E046E752E0BE01FE
:100AC00065587F4F0E94600870926F0260926E02BC
:100AD000CE0185589F4F0E946914C4010E94691479
:100AE000C5010E946914C8010E946914CE01C19613
:100AF0000E946914CE018B960E946914CE018596DE
:100B00000E946914CE014F960E946914CE014F963F
:100B10007C0196E0E91AF108C7010E946914EC14FF
:100B2000FD04B9F787E390E08C0F9D1F42960E9469
:100B3000691487E390E08C0F9D1F0C960E94691446
:100B4000CE01CD960E946914CE01C7960E94691409
:100B5000CA57DF4F0FB6F894DEBF0FBECDBFDF918F
:100B6000CF911F910F91FF90EF90DF90CF90BF90AA
:100B7000AF909F908F907F906F900895CF93DF9369
:100B800026E040E855E260E070E086EE92E00E94E8
:100B9000C2120E94870368EB7BE080E090E00E9435
:100BA000B11081E090E00E94D913EC010E94780717
:100BB000D0935F02C0935E020E942B048091740266
:100BC0009091750290936502809364028091720205
:100BD00090917302909367028093660280917002F5
:100BE00090917102909369028093680280916E02E5
:100BF00090916F0290936B0280936A0280916C02D5
:100C000090916D0290936D0280936C0266E772E0A2
:100C100084E692E00E9404010E94D60368EE73E02D
:100C200080E090E0DF91CF910C94B1108091A1020F
:100C3000882331F00E94FF000E94A2081092A102B6
:100C400008950F931F930E948210009160021091EB
:100C500061022091620230916302601B710B820B72
:100C6000930B613177428105910530F060E08BE0B4
:100C70001F910F910C9480111F910F9108950E9464
:100C8000FF000E948409049754F40E94821060932C
:100C900060027093610280936202909363020E94EB
:100CA00016060E9421060C94490CCF92EF920F93E6
:100CB00027E0C22E38E0E32E0DE02CE04AE069E0A8
:100CC00086E792E00E948E0E0F91EF90CF900895EC
:100CD000CF92DF92EF92FF920F931F93CF93DF9308
:100CE00000D000D000D0CDB7DEB78C016B017C0105
:100CF00082E0E80EF11C63E471E0C7010E94D714A2
:100D000080918E0290918F02F8019183808363E439
:100D100071E0CE0101960E94D714BE016F5F7F4F34
:100D2000C7010E94ED14CE0101960E946914F801DA
:100D3000D186C0861386128626960FB6F894DEBF3B
:100D40000FBECDBFDF91CF911F910F91FF90EF901C
:100D5000DF90CF90089502960C94ED14FC017587F6
:100D600064870895CF93DF93EC016E5F7F4F0E94FD
:100D70000415CE01DF91CF910895FC0184859585FE
:100D800008950F931F93CF93DF93EC0120918E0270
:100D900030918F022F5F3F4F30938F0220938E024E
:100DA0008EE090E00E94D9138C01BE010E9468067B
:100DB0001B870A87DF91CF911F910F910895FC0146
:100DC000738762870895FC01828593850895FC01ED
:100DD0008085918508950F931F93CF9363E072E010
:100DE0008CED92E00E94BA0E813049F063E072E02F
:100DF0008CED92E00E94BA0E823019F480E00E94DD
:100E0000330C60E072E08CED92E00E94BA0EC82FC5
:100E1000813009F047C061E072E08CED92E00E9401
:100E2000BA0E482F50E060E070E040939402509377
:100E30009502609396027093970262E072E08CEDE7
:100E400092E00E94BA0E482F50E060E070E04093BC
:100E500090025093910260939202709393020091DA
:100E6000940210919502209196023091970200937E
:100E7000B4021093B5022093B6023093B7024093A8
:100E8000B0025093B1026093B2027093B30261E07A
:100E900086E00E94801160E085E00E948011C0938E
:100EA000C40222C060E072E08CED92E00E94BA0EB3
:100EB0008230D1F410929C0210929D0210929E02F8
:100EC00010929F02109298021092990210929A0228
:100ED00010929B0261E085E00E94801160E086E054
:100EE0000E9480111092C402CF911F910F9108951A
:100EF0000C94EB068130910509F04DC041E060E0B3
:100F000072E08CED92E00E94BD0E40919C0261E087
:100F100072E08CED92E00E94BD0E4091980262E07A
:100F200072E08CED92E00E94BD0E40919C025091C7
:100F30009D0260919E0270919F0240939402509393
:100F40009502609396027093970280919802909117
:100F50009902A0919A02B0919B0280939002909383
:100F60009102A0939202B09393024093B4025093E3
:100F7000B5026093B6027093B7028093B00290936B
:100F8000B102A093B202B093B30264E171E086EEC5
:100F900092E00C944514029739F442E060E072E06C
:100FA0008CED92E00C94BD0E089560E072E08CED43
:100FB00092E00E94BA0E90E0089563E072E0882308
:100FC00041F08CED92E00E94BA0E813079F041E060
:100FD00007C08CED92E00E94BA0E823039F042E0F8
:100FE00063E072E08CED92E00C94BD0E0895AF9238
:100FF000BF92CF92DF92EF92FF920F931F93CF9306
:10100000DF9300D000D000D0CDB7DEB77C01DC018B
:1010100016960D911C911797A12CB12CC12CD12C97
:10102000D7011C968D919C911D97C816D90684F501
:10103000F701608571856A0D7B1DCE0101960E94C6
:101040000415BE016F5F7F4FC8010E94AB06CE0141
:1010500001960E946914C601880F991FD7011A963C
:10106000ED91FC911B97E80FF91F60817181C80118
:101070000E94AE06C8010E94C106C8010E94E30694
:101080008C01BFEFCB1ADB0AE6E0AE0EB11CC8CF75
:10109000C8010E94E70660E070E00E94DF06269625
:1010A0000FB6F894DEBF0FBECDBFDF91CF911F9179
:1010B0000F91FF90EF90DF90CF90BF90AF90089589
:1010C0008F929F92AF92BF92CF92DF92EF92FF9258
:1010D0000F931F93CF93DF93EC016B015A014901EA
:1010E00063E471E00E94D7146FE172E086EE92E053
:1010F0000E945714B601CE010E94ED14BD8AAC8A3D
:101100009D868C8619870887FB86EA868EE090E0AC
:101110000E94D9138C0160E070E00E9468061F8372
:101120000E831F8B0E8BCE01DF91CF911F910F91FC
:10113000FF90EF90DF90CF90BF90AF909F908F90F7
:101140000C94F707FF920F931F93CF93DF93CDB7C4
:10115000DEB76E970FB6F894DEBF0FBECDBF8C0121
:101160008091A002882359F0D80116968D919C9108
:10117000179757969C938E9356971092A002F8015A
:1011800066897789CE0101960E94B20669EC72E009
:10119000CE0101960E94C70BCE0101960E946914F0
:1011A000D80154968D919C9155970E94B20D40E0C4
:1011B00060E0F801848995890E94B90DD8015496A0
:1011C0008D919C915597E9ECF2E0DF010D900020A4
:1011D000E9F7AD0141505109495C5240DC01ED9104
:1011E000FC910280F381E02D69EC72E00995F80131
:1011F00066897789CE0149960E94B20666EA71E057
:10120000CE0149960E940D15811166C0D8015696EF
:101210006D917C915797CE0143960E94B2066EEA7B
:1012200071E0CE0143960E940D15811157C0F8015F
:1012300066897789CE010D960E94B2066CEB71E04B
:10124000CE010D960E940D1581114AC0D801569607
:101250006D917C915797CE0107960E94B20667E385
:1012600071E0CE0107960E940D15811117C0F8019B
:1012700066897789CE0101960E94B2066EE371E01D
:10128000CE0101960E940D15FF24F394811101C037
:10129000F12CCE0101960E94691402C0FF24F39440
:1012A000CE0107960E946914CE010D960E94691422
:1012B000CE0143960E946914CE0149960E9469149A
:1012C000FF20B1F0D80156968D919C9157970E94BE
:1012D000BD06FC0109950CC080E005C081E003C09B
:1012E000FF24F394E1CFFF24F394882329F3E0CF84
:1012F0006E960FB6F894DEBF0FBECDBFDF91CF91D3
:101300001F910F91FF900895CF92DF92EF92FF927D
:101310000F931F93CF93DF93CDB7DEB72C970FB604
:10132000F894DEBF0FBECDBF8C0184E00E94B611E1
:101330007C018130910509F07DC064E670E080E0B9
:1013400090E00E94B110F80166897789CE0101967C
:101350000E94B20667E371E0CE0101960E940D156E
:10136000D82ECE0101960E946914DD20A1F0809153
:101370009C0290919D02A0919E02B0919F020197C4
:10138000A109B10980939C0290939D02A0939E02B3
:10139000B0939F0228C0F80166897789CE01019633
:1013A0000E94B2066EE371E0CE0101960E940D1517
:1013B000D82ECE0101960E946914DD20E1F0409103
:1013C00098025091990260919A0270919B0241504B
:1013D00051096109710940939802509399026093F1
:1013E0009A0270939B02C8010E94A20868EC70E008
:1013F00080E090E018C0F801868997890E94E7068E
:10140000892B99F00E94360CF801868997890E94F1
:10141000E706F801978B868BC8010E94A20864EF4B
:1014200071E080E090E00E94B11061E08BE00E94EA
:10143000801185C182E00E94B611019709F07FC03A
:1014400064E670E080E090E00E94B110F8016689E7
:101450007789CE0101960E94B20667E371E0CE0162
:1014600001960E940D15F82ECE0101960E94691476
:10147000FF20A1F080919C0290919D02A0919E027C
:10148000B0919F020196A11DB11D80939C02909383
:101490009D02A0939E02B0939F0227C0F801668927
:1014A0007789CE0101960E94B2066EE371E0CE010B
:1014B00001960E940D15F82ECE0101960E94691426
:1014C000FF20D9F08091980290919902A0919A0200
:1014D000B0919B020196A11DB11D8093980290933B
:1014E0009902A0939A02B0939B02C8010E94A2089D
:1014F00068EC70E080E090E018C0F8018689978978
:101500000E94E306892B99F00E94360CF801868927
:1015100097890E94E306F801978B868BC8010E9489
:10152000A20864EF71E080E090E00E94B11061E0F9
:101530008BE00E94801152E0E52EF12C00C183E087
:101540000E94B611019709F0B3C064E670E080E034
:1015500090E00E94B1100E94360C6CE971E0C80165
:101560000E940D158823B9F0F80166897789CE01AC
:1015700001960E94B20663E971E0CE0101960E94D5
:101580000D15F82ECE0101960E946914F11003C0CA
:1015900081E08093A002F80166897789CE010196E7
:1015A0000E94B20667E371E0CE0101960E940D151C
:1015B000F82ECE0101960E946914F8016689778998
:1015C000FF2011F0CB0114C0CE0101960E94B2069B
:1015D0006EE371E0CE0101960E940D15F82ECE014A
:1015E00001960E946914FF2061F0F80186899789AD
:1015F0000E94E306F801978B868BC8010E94A2081F
:1016000049C06DEE71E0C8010E940D158823C1F13B
:10161000F80166897789CE0101960E94B2066EECC8
:1016200071E0CE0101960E940D15F82ECE010196B3
:101630000E946914FF2021F18091C402811120C011
:1016400010929C0210929D0210929E0210929F0294
:10165000109298021092990210929A0210929B0294
:101660001092B4021092B5021092B6021092B70214
:101670001092B0021092B1021092B2021092B30214
:1016800081E08093A102F801868997890E94BD06B6
:10169000FC01099568EC70E080E090E00E94B110D8
:1016A00061E08BE00E94801143E0E42EF12C47C002
:1016B000F80166897789CE0107960E94B2066EEA24
:1016C00071E0CE0107960E940D15811117C0F80137
:1016D00066897789CE0101960E94B2066CEB71E0B3
:1016E000CE0101960E940D15FF24F394811101C0D3
:1016F000F12CCE0101960E94691402C0FF24F394DC
:10170000CE0107960E946914FF20B1F00E9482105A
:10171000C090B802D090B902E090BA02F090BB023B
:101720006C197D098E099F09693E734081059105F9
:1017300018F0C8010E94A20834E0E32EF12CC70182
:101740002C960FB6F894DEBF0FBECDBFDF91CF91C0
:101750001F910F91FF90EF90DF90CF9008950E941E
:101760003F160E94CB1620E030E040E85FE30E9485
:1017700040150E940C16CB010895FC019F01281B07
:10178000390B2617370714F41192F8CF0895EF920A
:10179000FF920F931F93CF93DF937C01EB0162E1E4
:1017A00070E0CE010E94BD0B8E01B8016C1B7D0B59
:1017B000F701848195818617970748F0C7010E9439
:1017C0002C15FC018081F80181938F01EECFDF9110
:1017D000CF911F910F91FF90EF9008954F925F92DC
:1017E0006F927F92AF92BF92CF92DF92EF92FF9271
:1017F0000F931F93CF93DF936B017C018A0164E009
:1018000070E0CA010E94BD0BC701B6010E94AF0B78
:101810005C01EC018AE0482E512C612C712C21973F
:10182000D7FD0EC0C701B601A30192010E94CE17D9
:1018300069017A01F801EC0FFD1F605D6083EFCF55
:10184000F801EA0DFB1D1082DF91CF911F910F91DE
:10185000FF90EF90DF90CF90BF90AF907F906F9010
:101860005F904F9008958093DB0208958091DB0292
:10187000882371F061E080E10E94801162E370E0F2
:1018800080E090E00E94B11060E080E10C94801153
:1018900008958091C402882309F4B3C060E082EA0D
:1018A00092E00E94740F0E940C166093C002709325
:1018B000C1028093C2029093C30282EA92E00E9426
:1018C000EE0F0E940C166093BC027093BD028093D1
:1018D000BE029093BF024091C0025091C10260913C
:1018E000C2027091C3028091B4029091B502A0919E
:1018F000B602B091B70284179507A607B707CCF4D4
:1019000064EF71E080E090E00E94B11061E083E15B
:101910000E94801164EF71E080E090E00E94B110BD
:1019200061E082E10E94801164EF71E080E090E06C
:101930001DC0481759076A077B07D4F464E670E0B6
:1019400080E090E00E94B11060E083E10E9480118D
:1019500064E670E080E090E00E94B11060E082E117
:101960000E94801164E670E080E090E00E94B11077
:101970004091BC025091BD026091BE027091BF02C5
:101980008091B0029091B102A091B202B091B302E5
:1019900084179507A607B7077CF464EF71E080E031
:1019A00090E00E94B11061E082E10E94801164EF3A
:1019B00071E080E090E023C04091C0025091C102EC
:1019C0006091C2027091C3028091B4029091B502FD
:1019D000A091B602B091B70284179507A607B70782
:1019E00084F064E670E080E090E00E94B11060E076
:1019F00082E10E94801164E670E080E090E00C9447
:101A0000B110089526E04BE06EE082EA92E00C947B
:101A1000C10ECF93DF93EC0160E08E810E948011B4
:101A200081E090E00E94D91061E08E810E948011D7
:101A300081E090E00E94D91060E08E810E948011C8
:101A400084E690E0DF91CF910C94D910CF92DF9291
:101A5000EF92FF920F931F93CF93DF937C01C0E02F
:101A6000D0E0C62ED12C87010C0F1D1F61E0F801BC
:101A700087810E944711B6010C2E02C075956795AB
:101A80000A94E2F76170F80187810E948011219623
:101A9000C430D10541F7C701DF91CF911F910F915C
:101AA000FF90EF90DF90CF900C94090DCF92DF92D2
:101AB000EF92FF920F931F93CF93DF937C01C0E0CF
:101AC000D0E0C62ED12C87010C0F1D1F61E0F8015C
:101AD00087810E944711B6010C2E02C0759567954B
:101AE0000A94E2F76170F80187810E9480112196C3
:101AF000C830D10541F7C701DF91CF911F910F91F8
:101B0000FF90EF90DF90CF900C94090D1F93CF932F
:101B1000DF93EC01162F642F8C810E9480118D8140
:101B20008F3F19F060E00E9480118F85612F84FF44
:101B300006C0CE01DF91CF911F910C94560D70E03D
:101B400084E0759567958A95E1F7CE010E94260D90
:101B5000612FCE01DF91CF911F910C94260D40E0B3
:101B60000C94860D61E00E94AF0D80ED97E00C941F
:101B7000D910443008F043E0FC012389421710F0EB
:101B80004FEF420FFC01E40FF11D2489260F20685E
:101B9000622F0C94AF0DFC016089262F2460208BEE
:101BA0006C600C94AF0DCF93DF93EC01423018F0D2
:101BB0008F8588608F874B8B1C8A80E48D8B6E8B22
:101BC00070E0605C7F4F6F8B222329F0413019F465
:101BD0008F8584608F8780E593EC0E94D91060E048
:101BE0008C810E94801160E08E810E9480118D8125
:101BF0008F3F19F060E00E9480116F8564FD1DC069
:101C000063E0CE010E94260D84E991E10E94D91083
:101C100063E0CE010E94260D84E991E10E94D91073
:101C200063E0CE010E94260D86E990E00E94D91063
:101C300062E0CE010E94260D16C06062CE010E94B5
:101C4000AF0D84E991E10E94D9106F856062CE01E9
:101C50000E94AF0D86E990E00E94D9106F85606206
:101C6000CE010E94AF0D6F856062CE010E94AF0D64
:101C700084E0888BCE010E94CB0DCE010E94B20D74
:101C800082E0898B66E0CE01DF91CF910C94AF0D9D
:101C90006F927F928F92AF92CF92EF920F931F939A
:101CA000CF93DF93CDB7DEB73C01162F842F5D8530
:101CB0004E853F859889F301848325830683E782D7
:101CC000C086A1868286538744873587968761E0E0
:101CD0000E944711F30185818F3F19F061E00E9456
:101CE000471161E0F30186810E944711112319F029
:101CF000F301178603C080E1F301878720E041E00C
:101D000060E1C301DF91CF911F910F91EF90CF90D0
:101D1000AF908F907F906F900C94D30D8F92AF9275
:101D2000CF92EF920F93DC0113961C921E921297A2
:101D3000EBE2F2E0ED93FC931F921F921F921F9231
:101D40008C2CAE2CC02EE22E042F2FEF462F61E0FC
:101D50000E94480E0F900F900F900F900F91EF90F0
:101D6000CF90AF908F90089541E00E94860D81E062
:101D700090E00895CB010C94FD19CB01642F0C94D5
:101D8000051AFC0166834783208781E085870895D3
:101D9000DF92EF92FF920F931F93CF93DF93EC01AB
:101DA00061E08E810E9480116AEF70E080E090E037
:101DB0000E94B1100E94821009851A852B853C85EE
:101DC000601771078207930720F419861A861B860D
:101DD0001C862D85211111C009851A852B853C850E
:101DE000DC01CB01801B910BA20BB30B803D974014
:101DF000A105B10510F481E06FC01D860E9482101C
:101E000069877A878B879C871C821B821A8219823A
:101E1000188261E08E810E94471160E08E810E94ED
:101E2000801164E170E080E090E00E94B11061E018
:101E30008E810E94801188E290E00E94D91060E0BB
:101E40008E810E944711F12CD12C81E0E12C082FCA
:101E500010E08E810E94B6118017910741F4E3943F
:101E600081E090E00E94D9108FEFE812F2CF8E81CE
:101E70000E94B6119FEFE916C9F023E02F1590F4E8
:101E8000F0FC10C09D2D969596959695FE01E90F54
:101E9000F11D9081990F908328852E1510F4916083
:101EA0009083D394F39495E5F912D0CF27E22D15C2
:101EB00090F42C8130E04881898190E0840F911D5D
:101EC0004A81840F911D4B81840F911D99272817FA
:101ED000390709F490CF80E0DF91CF911F910F91E6
:101EE000FF90EF90DF900895CF92DF92EF92FF92F4
:101EF0000F931F93CF93DF93EC01162F0E94C80E10
:101F0000882309F450C08F818B3031F008F44BC026
:101F10008551823078F047C06A8170E080E090E0BF
:101F20000E943D16112309F449C020E030E040E151
:101F300051E42AC00A81602F6F7770E080E090E062
:101F40000E943F1620E030E040E853E40E9416175C
:101F50006B017C016B8170E080E090E00E943F1695
:101F60009B01AC01C701B6010E94401520E030E0A2
:101F700040E251E40E94A41507FD9058112309F195
:101F800020E030E040E151E40E94161720E030E00C
:101F900040EA50E40E94A41520E030E040E052E422
:101FA0000E9440150EC06FE272E086EE92E00E9441
:101FB000281420E030E040E050E005C09B01AC0177
:101FC00002C09B01AC01B901CA01DF91CF911F9101
:101FD0000F91FF90EF90DF90CF900895CF92DF9216
:101FE000EF92FF92CF93DF93EC010E94C80E8823FB
:101FF00079F18F818B3029F158F18551823040F58C
:10200000688170E080E090E00E943D1620E030E0C2
:1020100040E853E40E9416176B017C01698170E06F
:1020200080E090E00E943F169B01AC01C701B60121
:102030000E94401520E030E040E251E40E94A415E7
:1020400010C0688170E080E090E00E943D1609C0F9
:102050006FE272E086EE92E00E94281460E070E089
:10206000CB01DF91CF91FF90EF90DF90CF9008955B
:102070001F920F920FB60F9211242F933F938F93BD
:102080009F93AF93BF938091DE029091DF02A09166
:10209000E002B091E1023091DD0223E0230F2D3701
:1020A00020F40196A11DB11D05C026E8230F02965C
:1020B000A11DB11D2093DD028093DE029093DF020B
:1020C000A093E002B093E1028091E2029091E302DA
:1020D000A091E402B091E5020196A11DB11D80938B
:1020E000E2029093E302A093E402B093E502BF9171
:1020F000AF919F918F913F912F910F900FBE0F90B5
:102100001F9018952FB7F8946091DE027091DF024E
:102110008091E0029091E1022FBF08953FB7F894BB
:102120008091E2029091E302A091E402B091E50275
:1021300026B5A89B05C02F3F19F00196A11DB11D22
:102140003FBF6627782F892F9A2F620F711D811D3F
:10215000911D42E0660F771F881F991F4A95D1F79E
:102160000895CF92DF92EF92FF92CF93DF936B01AE
:102170007C010E948E10EB01C114D104E104F10432
:1021800089F00E943E150E948E106C1B7D0B683EEC
:10219000734090F381E0C81AD108E108F108C851F2
:1021A000DC4FEACFDF91CF91FF90EF90DF90CF909F
:1021B0000895019739F0880F991F880F991F02978A
:1021C0000197F1F70895789484B5826084BD84B551
:1021D000816084BD85B5826085BD85B5816085BD22
:1021E000EEE6F0E0808181608083E1E8F0E010823B
:1021F000808182608083808181608083E0E8F0E07C
:10220000808181608083E1EBF0E080818460808365
:10221000E0EBF0E0808181608083EAE7F0E080819C
:1022200084608083808182608083808181608083FC
:102230008081806880831092C1000895833081F08E
:1022400028F4813099F08230A1F008958730A9F008
:102250008830B9F08430D1F4809180008F7D03C044
:10226000809180008F7780938000089584B58F7768
:1022700002C084B58F7D84BD08958091B0008F77B2
:1022800003C08091B0008F7D8093B0000895CF93FC
:10229000DF9390E0FC01E05DFE4F2491FC01EC5BDC
:1022A000FE4F8491882349F190E0880F991FFC012B
:1022B000E459FE4FA591B4918E599E4FFC01C591F2
:1022C000D4919FB7611108C0F8948C912095822316
:1022D0008C93888182230AC0623051F4F8948C91E7
:1022E000322F309583238C938881822B888304C07E
:1022F000F8948C91822B8C939FBFDF91CF9108959E
:102300000F931F93CF93DF931F92CDB7DEB7282F84
:1023100030E0F901E45EFE4F8491F901E05DFE4F8B
:102320001491F901EC5BFE4F04910023C9F088235E
:1023300021F069830E941E116981E02FF0E0EE0F09
:10234000FF1FEE59FE4FA591B4919FB7F8948C9161
:10235000611103C01095812301C0812B8C939FBF15
:102360000F90DF91CF911F910F910895CF93DF933D
:10237000282F30E0F901E45EFE4F8491F901E05D21
:10238000FE4FD491F901EC5BFE4FC491CC2391F048
:1023900081110E941E11EC2FF0E0EE0FFF1FE85A92
:1023A000FE4FA591B4912C912D2381E090E021F472
:1023B00080E002C080E090E0DF91CF910895FC01C1
:1023C000818D228D90E0805C9F4F821B91098F73DD
:1023D00099270895FC01918D828D981731F0828D97
:1023E000E80FF11D858D90E008958FEF9FEF089520
:1023F000FC01918D828D981761F0828DDF01A80F0D
:10240000B11D5D968C91928D9F5F9F73928F90E02E
:1024100008958FEF9FEF08958CE793E1892B49F0A2
:1024200080E090E0892B29F00E947C1381110C94AC
:1024300000000895FC01848DDF01A80FB11DA35A8F
:10244000BF4F2C91848D90E001968F739927848FD4
:10245000A689B7892C93A089B1898C9180648C93CB
:10246000938D848D981306C00288F389E02D8081B6
:102470008F7D80830895CF93DF93EC01888D88232F
:10248000C9F0EA89FB89808185FD05C0A889B989E1
:102490008C9186FD0FC00FB607FCF5CF808185FFBC
:1024A000F2CFA889B9898C9185FFEDCFCE010E942A
:1024B0001A12E7CFDF91CF910895CF92DF92FF926A
:1024C0000F931F93CF93DF931F92CDB7DEB76C01AD
:1024D000DC015B969C915B975C968C915C97981362
:1024E00007C05096ED91FC915197808185FD32C0D7
:1024F000F601038D10E00F5F1F4F0F731127F02EB1
:10250000F601848DF81211C00FB607FCF9CFD60181
:102510005096ED91FC915197808185FFF1CFC601D6
:1025200069830E941A126981EBCF838DE80FF11D38
:10253000E35AFF4F6083D6015B960C935B975296EC
:10254000ED91FC91539780818062808381E0589661
:102550008C930DC0D6015696ED91FC9157976083F0
:102560005096ED91FC91519780818064808381E049
:1025700090E00F90DF91CF911F910F91FF90DF902E
:10258000CF900895BF92CF92DF92EF92FF92CF93B8
:10259000DF93EC016A017B01B22EE889F98982E0C0
:1025A0008083411581EE580761057105A1F060E057
:1025B00079E08DE390E0A70196010E94AC172150CD
:1025C00031094109510956954795379527952115A8
:1025D00080E1380798F0E889F989108260E874E8AA
:1025E0008EE190E0A70196010E94AC1721503109BD
:1025F000410951095695479537952795EC85FD85F5
:102600003083EE85FF852083188EEC89FD89B082AA
:10261000EA89FB89808180618083EA89FB898081E6
:1026200088608083EA89FB89808180688083EA8969
:10263000FB8980818F7D8083DF91CF91FF90EF9028
:10264000DF90CF90BF9008951F920F920FB60F9218
:1026500011242F938F939F93EF93FF93E091F602B2
:10266000F091F7028081E091FC02F091FD0282FD81
:1026700012C090818091FF028F5F8F7320910003C1
:10268000821751F0E091FF02F0E0EA51FD4F958F83
:102690008093FF0201C08081FF91EF919F918F9104
:1026A0002F910F900FBE0F901F9018951F920F92B1
:1026B0000FB60F9211242F933F934F935F936F9315
:1026C0007F938F939F93AF93BF93EF93FF9386EE88
:1026D00092E00E941A12FF91EF91BF91AF919F91EA
:1026E0008F917F916F915F914F913F912F910F90BB
:1026F0000FBE0F901F90189586EE92E00E94DF119A
:1027000021E0892B09F420E0822F08951092E9023C
:102710001092E80288EE93E0A0E0B0E08093EA0235
:102720009093EB02A093EC02B093ED028DE392E064
:102730009093E7028093E60285EC90E09093F30299
:102740008093F20284EC90E09093F5028093F4027F
:1027500080EC90E09093F7028093F60281EC90E099
:102760009093F9028093F80282EC90E09093FB0240
:102770008093FA0286EC90E09093FD028093FC0235
:102780001092FF02109200031092010310920203B4
:10279000089508950E94E3100E94C9130E94BE0587
:1027A000CCE0D2E10E943F062097E1F30E940C1298
:1027B000F9CF0C94F317CF92DF92EF92FF920F9321
:1027C0001F93CF93DF936C017A01EB01E60EF71EA6
:1027D00000E010E0CE15DF0561F06991D601ED91C2
:1027E000FC910190F081E02DC6010995080F191F99
:1027F000F1CFC801DF91CF911F910F91FF90EF9022
:10280000DF90CF900895EF92FF920F931F93CF9395
:10281000DF938C01FB01C0E0D0E064917F018FEF7A
:10282000E81AF80A662361F0D801ED91FC91019055
:10283000F081E02DC8010995C80FD91FF701EDCF30
:10284000CE01DF91CF911F910F91FF90EF900895EE
:102850000C94E900DC01ED91FC910190F081E02DF8
:1028600009940F931F93CF93DF93EC016DE00E94C7
:102870002A148C016AE0CE010E942A14800F911F55
:10288000DF91CF911F910F9108950F931F93CF93D5
:10289000DF93EC010E9403148C01CE010E943114DD
:1028A000800F911FDF91CF911F910F9108950F938A
:1028B0001F93CF93DF93EC010E94E9008C01CE01BE
:1028C0000E943114800F911FDF91CF911F910F91C2
:1028D0000895FC01808191810C948B18CF93DF9334
:1028E000EC0188819981009711F00E948B18198260
:1028F00018821D821C821B821A82DF91CF9108955B
:102900000F931F93CF93DF93EC018B016F5F7F4F8A
:10291000888199810E941A19009731F099838883E0
:102920001B830A8381E001C080E0DF91CF911F917A
:102930000F910895CF93DF93EC0188819981892BC2
:1029400029F08A819B818617970760F4CE010E9447
:102950008014882341F08C819D81892B19F4E881B2
:10296000F981108281E0DF91CF910895EF92FF927B
:102970000F931F93CF93DF93EC017B018A01BA0180
:102980000E949A14811104C0CE010E946E1407C0E7
:102990001D830C83B701888199810E94F619CE01AD
:1029A000DF91CF911F910F91FF90EF900895FC015F
:1029B00011821082138212821582148261157105B0
:1029C00059F0FB0101900020E9F7AF014150510996
:1029D000461B570B0C94B6140895CF93DF93EC016C
:1029E000FB018617970761F06081718161157105A0
:1029F00029F0448155810E94B61402C00E946E14D1
:102A0000CE01DF91CF910895FC01118210821382D3
:102A10001282158214820C94ED14FC0124813581FC
:102A2000232B31F421E061157105A1F0FB0108C0F1
:102A3000FC01808191816115710531F421E0FC0177
:102A40008081882339F005C00E94ED1921E0892B8F
:102A500009F020E0822F0895FC0184819581681798
:102A6000790720F480819181009729F410928303E3
:102A700083E893E00895860F971F089508955058AE
:102A8000BB27AA270ED04DC13ED130F043D120F054
:102A900031F49F3F11F41EF433C10EF4E095E7FBCF
:102AA00029C1E92F4FD180F3BA1762077307840752
:102AB000950718F071F49EF567C10EF4E0950B2EA2
:102AC000BA2FA02D0B01B90190010C01CA01A00180
:102AD0001124FF27591B99F0593F50F4503E68F1DB
:102AE0001A16F040A22F232F342F4427585FF3CF1C
:102AF000469537952795A795F0405395C9F77EF4ED
:102B00001F16BA0B620B730B840BBAF09150A1F035
:102B1000FF0FBB1F661F771F881FC2F70EC0BA0FBB
:102B2000621F731F841F48F4879577956795B79543
:102B3000F7959E3F08F0B3CF9395880F08F099273B
:102B4000EE0F9795879508950CD0EBC0E3D040F039
:102B5000DAD030F021F45F3F19F0CCC0511115C12B
:102B6000CFC0F0D098F39923C9F35523B1F3951B47
:102B7000550BBB27AA2762177307840738F09F5F9E
:102B80005F4F220F331F441FAA1FA9F333D00E2E0D
:102B90003AF0E0E830D091505040E695001CCAF77A
:102BA00029D0FE2F27D0660F771F881FBB1F26173F
:102BB00037074807AB07B0E809F0BB0B802DBF0112
:102BC000FF2793585F4F2AF09E3F510568F092C04F
:102BD000DCC05F3FECF3983EDCF386957795679514
:102BE000B795F7959F5FC9F7880F911D96958795C3
:102BF00097F90895E1E0660F771F881FBB1F6217E2
:102C000073078407BA0720F0621B730B840BBA0B9F
:102C1000EE1F88F7E095089504D06894B111B5C00F
:102C2000089598D088F09F5790F0B92F9927B75101
:102C3000A0F0D1F0660F771F881F991F1AF0BA9580
:102C4000C9F712C0B13081F09FD0B1E008959CC0A7
:102C5000672F782F8827B85F39F0B93FCCF3869576
:102C600077956795B395D9F73EF4909580957095D3
:102C700061957F4F8F4F9F4F0895E89409C097FB50
:102C80003EF490958095709561957F4F8F4F9F4F43
:102C90009923A9F0F92F96E9BB279395F695879587
:102CA00077956795B795F111F8CFFAF4BB0F11F44A
:102CB00060FF1BC06F5F7F4F8F4F9F4F16C08823F1
:102CC00011F096E911C0772321F09EE8872F762F27
:102CD00005C0662371F096E8862F70E060E02AF068
:102CE0009A95660F771F881FDAF7880F9695879554
:102CF00097F9089597F99F6780E870E060E008957C
:102D00009FEF80EC089500240A9416161706180603
:102D10000906089500240A941216130614060506DF
:102D20000895092E0394000C11F4882352F0BB0F70
:102D300040F4BF2B11F460FF04C06F5F7F4F8F4FD3
:102D40009F4F089557FD9058440F551F59F05F3F0E
:102D500071F04795880F97FB991F61F09F3F79F0BD
:102D600087950895121613061406551FF2CF46953F
:102D7000F1DF08C0161617061806991FF1CF8695C1
:102D80007105610508940895E894BB2766277727A5
:102D9000CB0197F908950AD029ED3BE54EED5EE3AE
:102DA00045C00EF0A6C0ACCF6894A4CFD3DFC8F363
:102DB0009923D1F3C6F3DF93CF931F930F93FF9221
:102DC000C92FDD2788232AF02197660F771F881FD8
:102DD000DAF720E030E040E85FEB9FE3883920F04D
:102DE000803E30F021968F774BDEE8E6F0E003C0BE
:102DF00047DEE5E9F0E08BD08B01BE01EC01FB2E54
:102E00006F5771097595771F880B990B38DF28E18B
:102E100032E741E35FE316D0AF2D9801AE01FF909A
:102E20000F911F91CF91DF913CDE7BCF0BD079CFFB
:102E30006ADF28F06FDF18F0952309F05BCF60CFD1
:102E40001124A3CF7FDFA0F3959FD1F3950F50E01E
:102E5000551F629FF001729FBB27F00DB11D639F4C
:102E6000AA27F00DB11DAA1F649F6627B00DA11DF2
:102E7000661F829F2227B00DA11D621F739FB00D98
:102E8000A11D621F839FA00D611D221F749F332708
:102E9000A00D611D231F849F600D211D822F762FA1
:102EA0006A2F11249F5750408AF0E1F088234AF09E
:102EB000EE0FFF1FBB1F661F771F881F91505040EA
:102EC000A9F79E3F510570F015CF5FCF5F3FECF340
:102ED000983EDCF3869577956795B795F795E795D6
:102EE0009F5FC1F7FE2B880F911D9695879597F9E7
:102EF00008959F3F31F0915020F48795779567951D
:102F0000B795880F911D9695879597F90895DF934A
:102F1000CF931F930F93FF92EF92DF927B018C016F
:102F2000689405C0DA2EEF018DDFFE01E894A591CB
:102F30002591359145915591AEF3EF01B2DDFE013A
:102F40009701A801DA9479F7DF90EF90FF900F9145
:102F50001F91CF91DF910895A1E21A2EAA1BBB1BEE
:102F6000FD010DC0AA1FBB1FEE1FFF1FA217B30755
:102F7000E407F50720F0A21BB30BE40BF50B661F6B
:102F8000771F881F991F1A9469F76095709580952F
:102F900090959B01AC01BD01CF010895052E97FBD3
:102FA0001EF400940E94E51757FD07D00E94AC174D
:102FB00007FC03D04EF40C94E517509540953095DE
:102FC00021953F4F4F4F5F4F089590958095709595
:102FD00061957F4F8F4F9F4F0895EE0FFF1F059014
:102FE000F491E02D0994CF93DF938230910510F492
:102FF00082E090E0E0918603F091870320E030E0EA
:10300000A0E0B0E0309739F140815181481759076D
:10301000B8F04817590771F482819381109729F00D
:1030200013969C938E9312972CC090938703809352
:10303000860327C02115310531F04217530718F0D8
:10304000A901DB0101C0EF019A01BD01DF0102808E
:10305000F381E02DD7CF21153105F9F0281B390B6D
:103060002430310580F48A819B816115710521F03E
:10307000FB019383828304C090938703809386032C
:10308000FE01329644C0FE01E20FF31F819391933B
:1030900022503109398328833AC02091840330912A
:1030A0008503232B41F420910201309103013093D9
:1030B00085032093840320910001309101012115A3
:1030C000310541F42DB73EB74091040150910501FF
:1030D000241B350BE0918403F0918503E217F3077D
:1030E000A0F42E1B3F0B2817390778F0AC014E5F78
:1030F0005F4F2417350748F04E0F5F1F509385032D
:10310000409384038193919302C0E0E0F0E0CF010B
:10311000DF91CF910895CF93DF93009709F487C093
:10312000FC01329713821282C0918603D0918703EB
:10313000209781F420813181280F391F80918403E9
:10314000909185038217930779F5F0938503E093B7
:1031500084036DC0DE0120E030E0AE17BF0750F4FD
:1031600012964D915C9113979D014115510509F1FE
:10317000DA01F3CFB383A28340815181840F951F7D
:103180008A179B0771F48D919C911197840F951F5D
:1031900002969183808312968D919C9113979383CD
:1031A00082832115310529F4F0938703E093860388
:1031B0003EC0D9011396FC93EE9312974D915D9109
:1031C000A40FB51FEA17FB0779F480819181840F62
:1031D000951F0296D90111969C938E9382819381BB
:1031E00013969C938E931297E0E0F0E08A819B8186
:1031F000009719F0FE01EC01F9CFCE01029628816B
:103200003981820F931F2091840330918503281701
:10321000390769F4309729F41092870310928603D6
:1032200002C013821282D0938503C0938403DF917E
:10323000CF910895A0E0B0E0E0E2F9E10C94171A14
:10324000EC01CB01209719F40E94F317B8C0FE01DE
:10325000E60FF71F9E0122503109E217F30708F429
:10326000ACC0D9010D911C91119706171707B8F042
:103270000530110508F49FC0A801445051094617B4
:10328000570708F498C002501109061B170B019349
:1032900011936D937C93CF010E948B188CC05B01BE
:1032A000A01AB10A4E01800E911EA0918603B09122
:1032B0008703612C712C60E070E0109709F449C01D
:1032C000A815B905C9F5ED90FC901197670142E08A
:1032D000C40ED11CCA14DB0478F147018A189B087C
:1032E000640142E0C40ED11C1296BC901297139652
:1032F000AC91B5E0CB16D10440F0B282A3839182A9
:103300008082D9018D939C9309C00E5F1F4F0E0DD3
:103310001F1DF90111830083EB2DFA2F6115710533
:1033200031F0DB011396FC93EE93129744C0F093B7
:103330008703E09386033FC06D917C9111976616D9
:10334000770608F43B01BD0112960D90BC91A02DAB
:10335000B4CF609184037091850368157905E9F411
:1033600068167906D0F44091000150910101411591
:10337000510541F44DB75EB76091040170910501AC
:10338000461B570BE417F507C0F4F0938503E09351
:103390008403F901918380830EC00E94F3177C019E
:1033A000009759F0A801BE010E94E419CE010E94C5
:1033B0008B18C70104C0CE0102C080E090E0CDB7F9
:1033C000DEB7EEE00C94331AFB01DC0102C0019081
:1033D0000D9241505040D8F70895FB01DC018D91CA
:1033E000019080190110D9F3990B0895FB01DC01BC
:1033F00001900D920020E1F70895F999FECF92BD5A
:1034000081BDF89A992780B50895262FF999FECFA6
:103410001FBA92BD81BD20BD0FB6F894FA9AF99AF1
:103420000FBE019608952F923F924F925F926F9236
:103430007F928F929F92AF92BF92CF92DF92EF9244
:10344000FF920F931F93CF93DF93CDB7DEB7CA1BC5
:10345000DB0B0FB6F894DEBF0FBECDBF09942A88F0
:10346000398848885F846E847D848C849B84AA8498
:10347000B984C884DF80EE80FD800C811B81AA8125
:10348000B981CE0FD11D0FB6F894DEBF0FBECDBFF0
:08349000ED010895F894FFCF4F
:103498000000880380002A01400156016C01980150
:1034A800F4013A027F021401A802E2021C0314018B
:1034B8004E6F742052756E6E696E670043204875B2
:1034C8006D3A002500430054656D703A2000487538
:1034D8006D3A2000416C6C207468652062657374D5
:1034E800004861707079204861746368696E2700CC
:1034F80057697468204C6F7665202D207261745A64
:103508000043757272656E7420537461747573002C
:103518004E65772053657474696E677300536F75D1
:103528006E6400526F746174696F6E004D61696EEC
:10353800206D656E75005461726765743A00437555
:103548007272656E742054656D703A0043757272BC
:10355800656E742048756D3A0053746F700042614F
:10356800636B0043757272656E7420537461747571
:1035780073206D656E75005374617274004E6577C3
:103588002053657474696E6773206D656E7500539A
:103598006F756E643A204F6E00536F756E643A20F3
:1035A8004F666600536F756E64206D656E750053C7
:1035B8007461727465640000000000B40EDB13527D
:1035C800656164206661696C00000000005D12DBC3
:0A35D80013DF11F811EA113B120095
:00000001FF
